{
  "_format": "hh-sol-artifact-1",
  "contractName": "PaintingNFTContract",
  "sourceName": "src/contracts/PaintingNFTContract.sol",
  "abi": [
    {
      "inputs": [
        {
          "internalType": "address",
          "name": "_operator",
          "type": "address"
        },
        {
          "internalType": "uint256",
          "name": "_tax",
          "type": "uint256"
        }
      ],
      "stateMutability": "nonpayable",
      "type": "constructor"
    },
    {
      "anonymous": false,
      "inputs": [
        {
          "indexed": true,
          "internalType": "address",
          "name": "owner",
          "type": "address"
        },
        {
          "indexed": true,
          "internalType": "address",
          "name": "approved",
          "type": "address"
        },
        {
          "indexed": true,
          "internalType": "uint256",
          "name": "tokenId",
          "type": "uint256"
        }
      ],
      "name": "Approval",
      "type": "event"
    },
    {
      "anonymous": false,
      "inputs": [
        {
          "indexed": true,
          "internalType": "address",
          "name": "owner",
          "type": "address"
        },
        {
          "indexed": true,
          "internalType": "address",
          "name": "operator",
          "type": "address"
        },
        {
          "indexed": false,
          "internalType": "bool",
          "name": "approved",
          "type": "bool"
        }
      ],
      "name": "ApprovalForAll",
      "type": "event"
    },
    {
      "anonymous": false,
      "inputs": [
        {
          "indexed": true,
          "internalType": "uint256",
          "name": "tokenID",
          "type": "uint256"
        },
        {
          "indexed": true,
          "internalType": "address",
          "name": "seller",
          "type": "address"
        },
        {
          "indexed": false,
          "internalType": "address",
          "name": "buyer",
          "type": "address"
        },
        {
          "indexed": false,
          "internalType": "uint256",
          "name": "price",
          "type": "uint256"
        }
      ],
      "name": "BoughtEvent",
      "type": "event"
    },
    {
      "anonymous": false,
      "inputs": [],
      "name": "CancelListedEvent",
      "type": "event"
    },
    {
      "anonymous": false,
      "inputs": [],
      "name": "ListedEvent",
      "type": "event"
    },
    {
      "anonymous": false,
      "inputs": [
        {
          "indexed": true,
          "internalType": "address",
          "name": "previousOwner",
          "type": "address"
        },
        {
          "indexed": true,
          "internalType": "address",
          "name": "newOwner",
          "type": "address"
        }
      ],
      "name": "OwnershipTransferred",
      "type": "event"
    },
    {
      "anonymous": false,
      "inputs": [
        {
          "indexed": true,
          "internalType": "address",
          "name": "from",
          "type": "address"
        },
        {
          "indexed": true,
          "internalType": "address",
          "name": "to",
          "type": "address"
        },
        {
          "indexed": true,
          "internalType": "uint256",
          "name": "tokenId",
          "type": "uint256"
        }
      ],
      "name": "Transfer",
      "type": "event"
    },
    {
      "inputs": [
        {
          "internalType": "address",
          "name": "to",
          "type": "address"
        },
        {
          "internalType": "uint256",
          "name": "tokenId",
          "type": "uint256"
        }
      ],
      "name": "approve",
      "outputs": [],
      "stateMutability": "nonpayable",
      "type": "function"
    },
    {
      "inputs": [
        {
          "internalType": "address",
          "name": "owner",
          "type": "address"
        }
      ],
      "name": "balanceOf",
      "outputs": [
        {
          "internalType": "uint256",
          "name": "",
          "type": "uint256"
        }
      ],
      "stateMutability": "view",
      "type": "function"
    },
    {
      "inputs": [
        {
          "internalType": "uint256",
          "name": "_tokenId",
          "type": "uint256"
        }
      ],
      "name": "buyNFT",
      "outputs": [],
      "stateMutability": "payable",
      "type": "function"
    },
    {
      "inputs": [
        {
          "internalType": "uint256",
          "name": "_tokenId",
          "type": "uint256"
        }
      ],
      "name": "cancelListNFT",
      "outputs": [],
      "stateMutability": "payable",
      "type": "function"
    },
    {
      "inputs": [
        {
          "internalType": "string",
          "name": "_tokenURI",
          "type": "string"
        }
      ],
      "name": "createNFT",
      "outputs": [],
      "stateMutability": "nonpayable",
      "type": "function"
    },
    {
      "inputs": [
        {
          "internalType": "uint256",
          "name": "tokenId",
          "type": "uint256"
        }
      ],
      "name": "getApproved",
      "outputs": [
        {
          "internalType": "address",
          "name": "",
          "type": "address"
        }
      ],
      "stateMutability": "view",
      "type": "function"
    },
    {
      "inputs": [],
      "name": "getMyNFT",
      "outputs": [
        {
          "components": [
            {
              "internalType": "uint256",
              "name": "tokenId",
              "type": "uint256"
            },
            {
              "internalType": "address payable",
              "name": "owner",
              "type": "address"
            },
            {
              "internalType": "uint256",
              "name": "price",
              "type": "uint256"
            },
            {
              "internalType": "string",
              "name": "URI",
              "type": "string"
            }
          ],
          "internalType": "struct PaintingNFTContract.Painting[]",
          "name": "",
          "type": "tuple[]"
        }
      ],
      "stateMutability": "view",
      "type": "function"
    },
    {
      "inputs": [],
      "name": "getUnsoldNFT",
      "outputs": [
        {
          "components": [
            {
              "internalType": "uint256",
              "name": "tokenId",
              "type": "uint256"
            },
            {
              "internalType": "address payable",
              "name": "owner",
              "type": "address"
            },
            {
              "internalType": "uint256",
              "name": "price",
              "type": "uint256"
            },
            {
              "internalType": "string",
              "name": "URI",
              "type": "string"
            }
          ],
          "internalType": "struct PaintingNFTContract.Painting[]",
          "name": "",
          "type": "tuple[]"
        }
      ],
      "stateMutability": "view",
      "type": "function"
    },
    {
      "inputs": [
        {
          "internalType": "address",
          "name": "owner",
          "type": "address"
        },
        {
          "internalType": "address",
          "name": "operator",
          "type": "address"
        }
      ],
      "name": "isApprovedForAll",
      "outputs": [
        {
          "internalType": "bool",
          "name": "",
          "type": "bool"
        }
      ],
      "stateMutability": "view",
      "type": "function"
    },
    {
      "inputs": [
        {
          "internalType": "uint256",
          "name": "_tokenId",
          "type": "uint256"
        },
        {
          "internalType": "uint256",
          "name": "_price",
          "type": "uint256"
        }
      ],
      "name": "listNFT",
      "outputs": [],
      "stateMutability": "payable",
      "type": "function"
    },
    {
      "inputs": [],
      "name": "name",
      "outputs": [
        {
          "internalType": "string",
          "name": "",
          "type": "string"
        }
      ],
      "stateMutability": "view",
      "type": "function"
    },
    {
      "inputs": [],
      "name": "operator",
      "outputs": [
        {
          "internalType": "address",
          "name": "",
          "type": "address"
        }
      ],
      "stateMutability": "view",
      "type": "function"
    },
    {
      "inputs": [],
      "name": "owner",
      "outputs": [
        {
          "internalType": "address",
          "name": "",
          "type": "address"
        }
      ],
      "stateMutability": "view",
      "type": "function"
    },
    {
      "inputs": [
        {
          "internalType": "uint256",
          "name": "tokenId",
          "type": "uint256"
        }
      ],
      "name": "ownerOf",
      "outputs": [
        {
          "internalType": "address",
          "name": "",
          "type": "address"
        }
      ],
      "stateMutability": "view",
      "type": "function"
    },
    {
      "inputs": [
        {
          "internalType": "uint256",
          "name": "",
          "type": "uint256"
        }
      ],
      "name": "paintings",
      "outputs": [
        {
          "internalType": "uint256",
          "name": "tokenId",
          "type": "uint256"
        },
        {
          "internalType": "address payable",
          "name": "owner",
          "type": "address"
        },
        {
          "internalType": "uint256",
          "name": "price",
          "type": "uint256"
        },
        {
          "internalType": "string",
          "name": "URI",
          "type": "string"
        }
      ],
      "stateMutability": "view",
      "type": "function"
    },
    {
      "inputs": [],
      "name": "renounceOwnership",
      "outputs": [],
      "stateMutability": "nonpayable",
      "type": "function"
    },
    {
      "inputs": [
        {
          "internalType": "address",
          "name": "from",
          "type": "address"
        },
        {
          "internalType": "address",
          "name": "to",
          "type": "address"
        },
        {
          "internalType": "uint256",
          "name": "tokenId",
          "type": "uint256"
        }
      ],
      "name": "safeTransferFrom",
      "outputs": [],
      "stateMutability": "nonpayable",
      "type": "function"
    },
    {
      "inputs": [
        {
          "internalType": "address",
          "name": "from",
          "type": "address"
        },
        {
          "internalType": "address",
          "name": "to",
          "type": "address"
        },
        {
          "internalType": "uint256",
          "name": "tokenId",
          "type": "uint256"
        },
        {
          "internalType": "bytes",
          "name": "data",
          "type": "bytes"
        }
      ],
      "name": "safeTransferFrom",
      "outputs": [],
      "stateMutability": "nonpayable",
      "type": "function"
    },
    {
      "inputs": [
        {
          "internalType": "address",
          "name": "operator",
          "type": "address"
        },
        {
          "internalType": "bool",
          "name": "approved",
          "type": "bool"
        }
      ],
      "name": "setApprovalForAll",
      "outputs": [],
      "stateMutability": "nonpayable",
      "type": "function"
    },
    {
      "inputs": [
        {
          "internalType": "bytes4",
          "name": "interfaceId",
          "type": "bytes4"
        }
      ],
      "name": "supportsInterface",
      "outputs": [
        {
          "internalType": "bool",
          "name": "",
          "type": "bool"
        }
      ],
      "stateMutability": "view",
      "type": "function"
    },
    {
      "inputs": [],
      "name": "symbol",
      "outputs": [
        {
          "internalType": "string",
          "name": "",
          "type": "string"
        }
      ],
      "stateMutability": "view",
      "type": "function"
    },
    {
      "inputs": [],
      "name": "tax",
      "outputs": [
        {
          "internalType": "uint256",
          "name": "",
          "type": "uint256"
        }
      ],
      "stateMutability": "view",
      "type": "function"
    },
    {
      "inputs": [
        {
          "internalType": "uint256",
          "name": "tokenId",
          "type": "uint256"
        }
      ],
      "name": "tokenURI",
      "outputs": [
        {
          "internalType": "string",
          "name": "",
          "type": "string"
        }
      ],
      "stateMutability": "view",
      "type": "function"
    },
    {
      "inputs": [
        {
          "internalType": "address",
          "name": "from",
          "type": "address"
        },
        {
          "internalType": "address",
          "name": "to",
          "type": "address"
        },
        {
          "internalType": "uint256",
          "name": "tokenId",
          "type": "uint256"
        }
      ],
      "name": "transferFrom",
      "outputs": [],
      "stateMutability": "nonpayable",
      "type": "function"
    },
    {
      "inputs": [
        {
          "internalType": "address",
          "name": "newOwner",
          "type": "address"
        }
      ],
      "name": "transferOwnership",
      "outputs": [],
      "stateMutability": "nonpayable",
      "type": "function"
    }
  ],
  "bytecode": "0x60806040523480156200001157600080fd5b50604051620042d8380380620042d88339818101604052810190620000379190620002f3565b6040518060400160405280600681526020017f44417070466900000000000000000000000000000000000000000000000000008152506040518060400160405280600481526020017f44415050000000000000000000000000000000000000000000000000000000008152508160009080519060200190620000bb92919062000215565b508060019080519060200190620000d492919062000215565b505050620000f7620000eb6200014760201b60201c565b6200014f60201b60201c565b81600760006101000a81548173ffffffffffffffffffffffffffffffffffffffff021916908373ffffffffffffffffffffffffffffffffffffffff1602179055508060098190555050506200040b565b600033905090565b6000600660009054906101000a900473ffffffffffffffffffffffffffffffffffffffff16905081600660006101000a81548173ffffffffffffffffffffffffffffffffffffffff021916908373ffffffffffffffffffffffffffffffffffffffff1602179055508173ffffffffffffffffffffffffffffffffffffffff168173ffffffffffffffffffffffffffffffffffffffff167f8be0079c531659141344cd1fd0a4f28419497f9722a3daafe3b4186f6b6457e060405160405180910390a35050565b828054620002239062000372565b90600052602060002090601f01602090048101928262000247576000855562000293565b82601f106200026257805160ff191683800117855562000293565b8280016001018555821562000293579182015b828111156200029257825182559160200191906001019062000275565b5b509050620002a29190620002a6565b5090565b5b80821115620002c1576000816000905550600101620002a7565b5090565b600081519050620002d681620003d7565b92915050565b600081519050620002ed81620003f1565b92915050565b600080604083850312156200030757600080fd5b60006200031785828601620002c5565b92505060206200032a85828601620002dc565b9150509250929050565b6000620003418262000348565b9050919050565b600073ffffffffffffffffffffffffffffffffffffffff82169050919050565b6000819050919050565b600060028204905060018216806200038b57607f821691505b60208210811415620003a257620003a1620003a8565b5b50919050565b7f4e487b7100000000000000000000000000000000000000000000000000000000600052602260045260246000fd5b620003e28162000334565b8114620003ee57600080fd5b50565b620003fc8162000368565b81146200040857600080fd5b50565b613ebd806200041b6000396000f3fe6080604052600436106101665760003560e01c806388cf3d1b116100d1578063b88d4fde1161008a578063cad7d03311610064578063cad7d03314610516578063da2ed03e14610541578063e985e9c51461056a578063f2fde38b146105a757610166565b8063b88d4fde14610470578063c7ca6daa14610499578063c87b56dd146104d957610166565b806388cf3d1b1461038e5780638da5cb5b146103aa57806394383f14146103d557806395d89b41146103f157806399c8d5561461041c578063a22cb4651461044757610166565b806342842e0e1161012357806342842e0e1461028d57806351ed8288146102b6578063570ca735146102d25780636352211e146102fd57806370a082311461033a578063715018a61461037757610166565b806301ffc9a71461016b57806306fdde03146101a8578063081812fc146101d3578063095ea7b31461021057806311b801691461023957806323b872dd14610264575b600080fd5b34801561017757600080fd5b50610192600480360381019061018d9190612db9565b6105d0565b60405161019f91906133d9565b60405180910390f35b3480156101b457600080fd5b506101bd6106b2565b6040516101ca91906133f4565b60405180910390f35b3480156101df57600080fd5b506101fa60048036038101906101f59190612e4c565b610744565b6040516102079190613327565b60405180910390f35b34801561021c57600080fd5b5061023760048036038101906102329190612d7d565b61078a565b005b34801561024557600080fd5b5061024e6108a2565b60405161025b91906133b7565b60405180910390f35b34801561027057600080fd5b5061028b60048036038101906102869190612c77565b610b3b565b005b34801561029957600080fd5b506102b460048036038101906102af9190612c77565b610b9b565b005b6102d060048036038101906102cb9190612e4c565b610bbb565b005b3480156102de57600080fd5b506102e7610e67565b6040516102f49190613327565b60405180910390f35b34801561030957600080fd5b50610324600480360381019061031f9190612e4c565b610e8d565b6040516103319190613327565b60405180910390f35b34801561034657600080fd5b50610361600480360381019061035c9190612c12565b610f14565b60405161036e9190613616565b60405180910390f35b34801561038357600080fd5b5061038c610fcc565b005b6103a860048036038101906103a39190612e4c565b610fe0565b005b3480156103b657600080fd5b506103bf6110f9565b6040516103cc9190613327565b60405180910390f35b6103ef60048036038101906103ea9190612e75565b611123565b005b3480156103fd57600080fd5b506104066111f1565b60405161041391906133f4565b60405180910390f35b34801561042857600080fd5b50610431611283565b60405161043e9190613616565b60405180910390f35b34801561045357600080fd5b5061046e60048036038101906104699190612d41565b611289565b005b34801561047c57600080fd5b5061049760048036038101906104929190612cc6565b61129f565b005b3480156104a557600080fd5b506104c060048036038101906104bb9190612e4c565b611301565b6040516104d09493929190613631565b60405180910390f35b3480156104e557600080fd5b5061050060048036038101906104fb9190612e4c565b6113e9565b60405161050d91906133f4565b60405180910390f35b34801561052257600080fd5b5061052b611451565b60405161053891906133b7565b60405180910390f35b34801561054d57600080fd5b5061056860048036038101906105639190612e0b565b611805565b005b34801561057657600080fd5b50610591600480360381019061058c9190612c3b565b6118fa565b60405161059e91906133d9565b60405180910390f35b3480156105b357600080fd5b506105ce60048036038101906105c99190612c12565b61198e565b005b60007f80ac58cd000000000000000000000000000000000000000000000000000000007bffffffffffffffffffffffffffffffffffffffffffffffffffffffff1916827bffffffffffffffffffffffffffffffffffffffffffffffffffffffff1916148061069b57507f5b5e139f000000000000000000000000000000000000000000000000000000007bffffffffffffffffffffffffffffffffffffffffffffffffffffffff1916827bffffffffffffffffffffffffffffffffffffffffffffffffffffffff1916145b806106ab57506106aa82611a12565b5b9050919050565b6060600080546106c1906138af565b80601f01602080910402602001604051908101604052809291908181526020018280546106ed906138af565b801561073a5780601f1061070f5761010080835404028352916020019161073a565b820191906000526020600020905b81548152906001019060200180831161071d57829003601f168201915b5050505050905090565b600061074f82611a7c565b6004600083815260200190815260200160002060009054906101000a900473ffffffffffffffffffffffffffffffffffffffff169050919050565b600061079582610e8d565b90508073ffffffffffffffffffffffffffffffffffffffff168373ffffffffffffffffffffffffffffffffffffffff161415610806576040517f08c379a00000000000000000000000000000000000000000000000000000000081526004016107fd906135b6565b60405180910390fd5b8073ffffffffffffffffffffffffffffffffffffffff16610825611ac7565b73ffffffffffffffffffffffffffffffffffffffff16148061085457506108538161084e611ac7565b6118fa565b5b610893576040517f08c379a000000000000000000000000000000000000000000000000000000000815260040161088a906135f6565b60405180910390fd5b61089d8383611acf565b505050565b606060006108af30610f14565b905060008167ffffffffffffffff8111156108f3577f4e487b7100000000000000000000000000000000000000000000000000000000600052604160045260246000fd5b60405190808252806020026020018201604052801561092c57816020015b6109196129f8565b8152602001906001900390816109115790505b5090506000805b600880549050811015610b31573073ffffffffffffffffffffffffffffffffffffffff1661096082610e8d565b73ffffffffffffffffffffffffffffffffffffffff161415610b1e57600881815481106109b6577f4e487b7100000000000000000000000000000000000000000000000000000000600052603260045260246000fd5b9060005260206000209060040201604051806080016040529081600082015481526020016001820160009054906101000a900473ffffffffffffffffffffffffffffffffffffffff1673ffffffffffffffffffffffffffffffffffffffff1673ffffffffffffffffffffffffffffffffffffffff16815260200160028201548152602001600382018054610a49906138af565b80601f0160208091040260200160405190810160405280929190818152602001828054610a75906138af565b8015610ac25780601f10610a9757610100808354040283529160200191610ac2565b820191906000526020600020905b815481529060010190602001808311610aa557829003601f168201915b505050505081525050838381518110610b04577f4e487b7100000000000000000000000000000000000000000000000000000000600052603260045260246000fd5b60200260200101819052508180610b1a90613912565b9250505b8080610b2990613912565b915050610933565b5081935050505090565b610b4c610b46611ac7565b82611b88565b610b8b576040517f08c379a0000000000000000000000000000000000000000000000000000000008152600401610b8290613416565b60405180910390fd5b610b96838383611c1d565b505050565b610bb68383836040518060200160405280600081525061129f565b505050565b600060088281548110610bf7577f4e487b7100000000000000000000000000000000000000000000000000000000600052603260045260246000fd5b9060005260206000209060040201600201549050600060088381548110610c47577f4e487b7100000000000000000000000000000000000000000000000000000000600052603260045260246000fd5b906000526020600020906004020160010160009054906101000a900473ffffffffffffffffffffffffffffffffffffffff16905060095482610c899190613791565b3414610cca576040517f08c379a0000000000000000000000000000000000000000000000000000000008152600401610cc1906135d6565b60405180910390fd5b3360088481548110610d05577f4e487b7100000000000000000000000000000000000000000000000000000000600052603260045260246000fd5b906000526020600020906004020160010160006101000a81548173ffffffffffffffffffffffffffffffffffffffff021916908373ffffffffffffffffffffffffffffffffffffffff160217905550610d5f303385611c1d565b600760009054906101000a900473ffffffffffffffffffffffffffffffffffffffff1673ffffffffffffffffffffffffffffffffffffffff166108fc6009549081150290604051600060405180830381858888f19350505050158015610dc9573d6000803e3d6000fd5b508073ffffffffffffffffffffffffffffffffffffffff166108fc839081150290604051600060405180830381858888f19350505050158015610e10573d6000803e3d6000fd5b508073ffffffffffffffffffffffffffffffffffffffff16837ff766699a1b2415e00e3f3a1418fc0f5a06ec5ad9b8a1f547267644fb469c1f463385604051610e5a92919061338e565b60405180910390a3505050565b600760009054906101000a900473ffffffffffffffffffffffffffffffffffffffff1681565b600080610e9983611f17565b9050600073ffffffffffffffffffffffffffffffffffffffff168173ffffffffffffffffffffffffffffffffffffffff161415610f0b576040517f08c379a0000000000000000000000000000000000000000000000000000000008152600401610f0290613576565b60405180910390fd5b80915050919050565b60008073ffffffffffffffffffffffffffffffffffffffff168273ffffffffffffffffffffffffffffffffffffffff161415610f85576040517f08c379a0000000000000000000000000000000000000000000000000000000008152600401610f7c906134f6565b60405180910390fd5b600360008373ffffffffffffffffffffffffffffffffffffffff1673ffffffffffffffffffffffffffffffffffffffff168152602001908152602001600020549050919050565b610fd4611f54565b610fde6000611fd2565b565b60006008828154811061101c577f4e487b7100000000000000000000000000000000000000000000000000000000600052603260045260246000fd5b906000526020600020906004020160010160009054906101000a900473ffffffffffffffffffffffffffffffffffffffff1690508073ffffffffffffffffffffffffffffffffffffffff163373ffffffffffffffffffffffffffffffffffffffff16146110be576040517f08c379a00000000000000000000000000000000000000000000000000000000081526004016110b590613556565b60405180910390fd5b6110c9303384611c1d565b7f550042711c97a7912bc5ac7eb0b53f6eb3891eeccd0f65f7eee18eeed14c637d60405160405180910390a15050565b6000600660009054906101000a900473ffffffffffffffffffffffffffffffffffffffff16905090565b60008111611166576040517f08c379a000000000000000000000000000000000000000000000000000000000815260040161115d90613596565b60405180910390fd5b80600883815481106111a1577f4e487b7100000000000000000000000000000000000000000000000000000000600052603260045260246000fd5b9060005260206000209060040201600201819055506111c1333084611c1d565b7f7d91ff2b365b89dbc4d1dc2bb134f26e866c6971db2b7307405ec47829b66aa260405160405180910390a15050565b606060018054611200906138af565b80601f016020809104026020016040519081016040528092919081815260200182805461122c906138af565b80156112795780601f1061124e57610100808354040283529160200191611279565b820191906000526020600020905b81548152906001019060200180831161125c57829003601f168201915b5050505050905090565b60095481565b61129b611294611ac7565b8383612098565b5050565b6112b06112aa611ac7565b83611b88565b6112ef576040517f08c379a00000000000000000000000000000000000000000000000000000000081526004016112e690613416565b60405180910390fd5b6112fb84848484612205565b50505050565b6008818154811061131157600080fd5b90600052602060002090600402016000915090508060000154908060010160009054906101000a900473ffffffffffffffffffffffffffffffffffffffff1690806002015490806003018054611366906138af565b80601f0160208091040260200160405190810160405280929190818152602001828054611392906138af565b80156113df5780601f106113b4576101008083540402835291602001916113df565b820191906000526020600020905b8154815290600101906020018083116113c257829003601f168201915b5050505050905084565b60606113f482611a7c565b60006113fe612261565b9050600081511161141e5760405180602001604052806000815250611449565b8061142884612278565b604051602001611439929190613303565b6040516020818303038152906040525b915050919050565b60606000805b600880549050811015611525573373ffffffffffffffffffffffffffffffffffffffff16600882815481106114b5577f4e487b7100000000000000000000000000000000000000000000000000000000600052603260045260246000fd5b906000526020600020906004020160010160009054906101000a900473ffffffffffffffffffffffffffffffffffffffff1673ffffffffffffffffffffffffffffffffffffffff16141561151257818061150e90613912565b9250505b808061151d90613912565b915050611457565b506000808267ffffffffffffffff811115611569577f4e487b7100000000000000000000000000000000000000000000000000000000600052604160045260246000fd5b6040519080825280602002602001820160405280156115a257816020015b61158f6129f8565b8152602001906001900390816115875790505b50905060005b6008805490508110156117fb573373ffffffffffffffffffffffffffffffffffffffff1660088281548110611606577f4e487b7100000000000000000000000000000000000000000000000000000000600052603260045260246000fd5b906000526020600020906004020160010160009054906101000a900473ffffffffffffffffffffffffffffffffffffffff1673ffffffffffffffffffffffffffffffffffffffff1614156117e8576008818154811061168e577f4e487b7100000000000000000000000000000000000000000000000000000000600052603260045260246000fd5b9060005260206000209060040201604051806080016040529081600082015481526020016001820160009054906101000a900473ffffffffffffffffffffffffffffffffffffffff1673ffffffffffffffffffffffffffffffffffffffff1673ffffffffffffffffffffffffffffffffffffffff16815260200160028201548152602001600382018054611721906138af565b80601f016020809104026020016040519081016040528092919081815260200182805461174d906138af565b801561179a5780601f1061176f5761010080835404028352916020019161179a565b820191906000526020600020905b81548152906001019060200180831161177d57829003601f168201915b5050505050815250508284815181106117dc577f4e487b7100000000000000000000000000000000000000000000000000000000600052603260045260246000fd5b60200260200101819052505b80806117f390613912565b9150506115a8565b5080935050505090565b60006008805490509050611819338261239c565b600860405180608001604052808381526020013373ffffffffffffffffffffffffffffffffffffffff168152602001600081526020018481525090806001815401808255809150506001900390600052602060002090600402016000909190919091506000820151816000015560208201518160010160006101000a81548173ffffffffffffffffffffffffffffffffffffffff021916908373ffffffffffffffffffffffffffffffffffffffff1602179055506040820151816002015560608201518160030190805190602001906118f3929190612a36565b5050505050565b6000600560008473ffffffffffffffffffffffffffffffffffffffff1673ffffffffffffffffffffffffffffffffffffffff16815260200190815260200160002060008373ffffffffffffffffffffffffffffffffffffffff1673ffffffffffffffffffffffffffffffffffffffff16815260200190815260200160002060009054906101000a900460ff16905092915050565b611996611f54565b600073ffffffffffffffffffffffffffffffffffffffff168173ffffffffffffffffffffffffffffffffffffffff161415611a06576040517f08c379a00000000000000000000000000000000000000000000000000000000081526004016119fd90613456565b60405180910390fd5b611a0f81611fd2565b50565b60007f01ffc9a7000000000000000000000000000000000000000000000000000000007bffffffffffffffffffffffffffffffffffffffffffffffffffffffff1916827bffffffffffffffffffffffffffffffffffffffffffffffffffffffff1916149050919050565b611a85816125ba565b611ac4576040517f08c379a0000000000000000000000000000000000000000000000000000000008152600401611abb90613576565b60405180910390fd5b50565b600033905090565b816004600083815260200190815260200160002060006101000a81548173ffffffffffffffffffffffffffffffffffffffff021916908373ffffffffffffffffffffffffffffffffffffffff160217905550808273ffffffffffffffffffffffffffffffffffffffff16611b4283610e8d565b73ffffffffffffffffffffffffffffffffffffffff167f8c5be1e5ebec7d5bd14f71427d1e84f3dd0314c0f7b2291e5b200ac8c7c3b92560405160405180910390a45050565b600080611b9483610e8d565b90508073ffffffffffffffffffffffffffffffffffffffff168473ffffffffffffffffffffffffffffffffffffffff161480611bd65750611bd581856118fa565b5b80611c1457508373ffffffffffffffffffffffffffffffffffffffff16611bfc84610744565b73ffffffffffffffffffffffffffffffffffffffff16145b91505092915050565b8273ffffffffffffffffffffffffffffffffffffffff16611c3d82610e8d565b73ffffffffffffffffffffffffffffffffffffffff1614611c93576040517f08c379a0000000000000000000000000000000000000000000000000000000008152600401611c8a90613476565b60405180910390fd5b600073ffffffffffffffffffffffffffffffffffffffff168273ffffffffffffffffffffffffffffffffffffffff161415611d03576040517f08c379a0000000000000000000000000000000000000000000000000000000008152600401611cfa906134b6565b60405180910390fd5b611d1083838360016125fb565b8273ffffffffffffffffffffffffffffffffffffffff16611d3082610e8d565b73ffffffffffffffffffffffffffffffffffffffff1614611d86576040517f08c379a0000000000000000000000000000000000000000000000000000000008152600401611d7d90613476565b60405180910390fd5b6004600082815260200190815260200160002060006101000a81549073ffffffffffffffffffffffffffffffffffffffff02191690556001600360008573ffffffffffffffffffffffffffffffffffffffff1673ffffffffffffffffffffffffffffffffffffffff168152602001908152602001600020600082825403925050819055506001600360008473ffffffffffffffffffffffffffffffffffffffff1673ffffffffffffffffffffffffffffffffffffffff16815260200190815260200160002060008282540192505081905550816002600083815260200190815260200160002060006101000a81548173ffffffffffffffffffffffffffffffffffffffff021916908373ffffffffffffffffffffffffffffffffffffffff160217905550808273ffffffffffffffffffffffffffffffffffffffff168473ffffffffffffffffffffffffffffffffffffffff167fddf252ad1be2c89b69c2b068fc378daa952ba7f163c4a11628f55a4df523b3ef60405160405180910390a4611f128383836001612601565b505050565b60006002600083815260200190815260200160002060009054906101000a900473ffffffffffffffffffffffffffffffffffffffff169050919050565b611f5c611ac7565b73ffffffffffffffffffffffffffffffffffffffff16611f7a6110f9565b73ffffffffffffffffffffffffffffffffffffffff1614611fd0576040517f08c379a0000000000000000000000000000000000000000000000000000000008152600401611fc790613536565b60405180910390fd5b565b6000600660009054906101000a900473ffffffffffffffffffffffffffffffffffffffff16905081600660006101000a81548173ffffffffffffffffffffffffffffffffffffffff021916908373ffffffffffffffffffffffffffffffffffffffff1602179055508173ffffffffffffffffffffffffffffffffffffffff168173ffffffffffffffffffffffffffffffffffffffff167f8be0079c531659141344cd1fd0a4f28419497f9722a3daafe3b4186f6b6457e060405160405180910390a35050565b8173ffffffffffffffffffffffffffffffffffffffff168373ffffffffffffffffffffffffffffffffffffffff161415612107576040517f08c379a00000000000000000000000000000000000000000000000000000000081526004016120fe906134d6565b60405180910390fd5b80600560008573ffffffffffffffffffffffffffffffffffffffff1673ffffffffffffffffffffffffffffffffffffffff16815260200190815260200160002060008473ffffffffffffffffffffffffffffffffffffffff1673ffffffffffffffffffffffffffffffffffffffff16815260200190815260200160002060006101000a81548160ff0219169083151502179055508173ffffffffffffffffffffffffffffffffffffffff168373ffffffffffffffffffffffffffffffffffffffff167f17307eab39ab6107e8899845ad3d59bd9653f200f220920489ca2b5937696c31836040516121f891906133d9565b60405180910390a3505050565b612210848484611c1d565b61221c84848484612607565b61225b576040517f08c379a000000000000000000000000000000000000000000000000000000000815260040161225290613436565b60405180910390fd5b50505050565b606060405180602001604052806000815250905090565b6060600060016122878461279e565b01905060008167ffffffffffffffff8111156122cc577f4e487b7100000000000000000000000000000000000000000000000000000000600052604160045260246000fd5b6040519080825280601f01601f1916602001820160405280156122fe5781602001600182028036833780820191505090505b509050600082602001820190505b600115612391578080600190039150507f3031323334353637383961626364656600000000000000000000000000000000600a86061a8153600a858161237b577f4e487b7100000000000000000000000000000000000000000000000000000000600052601260045260246000fd5b049450600085141561238c57612391565b61230c565b819350505050919050565b600073ffffffffffffffffffffffffffffffffffffffff168273ffffffffffffffffffffffffffffffffffffffff16141561240c576040517f08c379a000000000000000000000000000000000000000000000000000000000815260040161240390613516565b60405180910390fd5b612415816125ba565b15612455576040517f08c379a000000000000000000000000000000000000000000000000000000000815260040161244c90613496565b60405180910390fd5b6124636000838360016125fb565b61246c816125ba565b156124ac576040517f08c379a00000000000000000000000000000000000000000000000000000000081526004016124a390613496565b60405180910390fd5b6001600360008473ffffffffffffffffffffffffffffffffffffffff1673ffffffffffffffffffffffffffffffffffffffff16815260200190815260200160002060008282540192505081905550816002600083815260200190815260200160002060006101000a81548173ffffffffffffffffffffffffffffffffffffffff021916908373ffffffffffffffffffffffffffffffffffffffff160217905550808273ffffffffffffffffffffffffffffffffffffffff16600073ffffffffffffffffffffffffffffffffffffffff167fddf252ad1be2c89b69c2b068fc378daa952ba7f163c4a11628f55a4df523b3ef60405160405180910390a46125b6600083836001612601565b5050565b60008073ffffffffffffffffffffffffffffffffffffffff166125dc83611f17565b73ffffffffffffffffffffffffffffffffffffffff1614159050919050565b50505050565b50505050565b60006126288473ffffffffffffffffffffffffffffffffffffffff166129d5565b15612791578373ffffffffffffffffffffffffffffffffffffffff1663150b7a02612651611ac7565b8786866040518563ffffffff1660e01b81526004016126739493929190613342565b602060405180830381600087803b15801561268d57600080fd5b505af19250505080156126be57506040513d601f19601f820116820180604052508101906126bb9190612de2565b60015b612741573d80600081146126ee576040519150601f19603f3d011682016040523d82523d6000602084013e6126f3565b606091505b50600081511415612739576040517f08c379a000000000000000000000000000000000000000000000000000000000815260040161273090613436565b60405180910390fd5b805181602001fd5b63150b7a0260e01b7bffffffffffffffffffffffffffffffffffffffffffffffffffffffff1916817bffffffffffffffffffffffffffffffffffffffffffffffffffffffff191614915050612796565b600190505b949350505050565b600080600090507a184f03e93ff9f4daa797ed6e38ed64bf6a1f0100000000000000008310612822577a184f03e93ff9f4daa797ed6e38ed64bf6a1f0100000000000000008381612818577f4e487b7100000000000000000000000000000000000000000000000000000000600052601260045260246000fd5b0492506040810190505b6d04ee2d6d415b85acef81000000008310612885576d04ee2d6d415b85acef8100000000838161287b577f4e487b7100000000000000000000000000000000000000000000000000000000600052601260045260246000fd5b0492506020810190505b662386f26fc1000083106128da57662386f26fc1000083816128d0577f4e487b7100000000000000000000000000000000000000000000000000000000600052601260045260246000fd5b0492506010810190505b6305f5e1008310612929576305f5e100838161291f577f4e487b7100000000000000000000000000000000000000000000000000000000600052601260045260246000fd5b0492506008810190505b612710831061297457612710838161296a577f4e487b7100000000000000000000000000000000000000000000000000000000600052601260045260246000fd5b0492506004810190505b606483106129bd57606483816129b3577f4e487b7100000000000000000000000000000000000000000000000000000000600052601260045260246000fd5b0492506002810190505b600a83106129cc576001810190505b80915050919050565b6000808273ffffffffffffffffffffffffffffffffffffffff163b119050919050565b604051806080016040528060008152602001600073ffffffffffffffffffffffffffffffffffffffff16815260200160008152602001606081525090565b828054612a42906138af565b90600052602060002090601f016020900481019282612a645760008555612aab565b82601f10612a7d57805160ff1916838001178555612aab565b82800160010185558215612aab579182015b82811115612aaa578251825591602001919060010190612a8f565b5b509050612ab89190612abc565b5090565b5b80821115612ad5576000816000905550600101612abd565b5090565b6000612aec612ae7846136a2565b61367d565b905082815260208101848484011115612b0457600080fd5b612b0f84828561386d565b509392505050565b6000612b2a612b25846136d3565b61367d565b905082815260208101848484011115612b4257600080fd5b612b4d84828561386d565b509392505050565b600081359050612b6481613e2b565b92915050565b600081359050612b7981613e42565b92915050565b600081359050612b8e81613e59565b92915050565b600081519050612ba381613e59565b92915050565b600082601f830112612bba57600080fd5b8135612bca848260208601612ad9565b91505092915050565b600082601f830112612be457600080fd5b8135612bf4848260208601612b17565b91505092915050565b600081359050612c0c81613e70565b92915050565b600060208284031215612c2457600080fd5b6000612c3284828501612b55565b91505092915050565b60008060408385031215612c4e57600080fd5b6000612c5c85828601612b55565b9250506020612c6d85828601612b55565b9150509250929050565b600080600060608486031215612c8c57600080fd5b6000612c9a86828701612b55565b9350506020612cab86828701612b55565b9250506040612cbc86828701612bfd565b9150509250925092565b60008060008060808587031215612cdc57600080fd5b6000612cea87828801612b55565b9450506020612cfb87828801612b55565b9350506040612d0c87828801612bfd565b925050606085013567ffffffffffffffff811115612d2957600080fd5b612d3587828801612ba9565b91505092959194509250565b60008060408385031215612d5457600080fd5b6000612d6285828601612b55565b9250506020612d7385828601612b6a565b9150509250929050565b60008060408385031215612d9057600080fd5b6000612d9e85828601612b55565b9250506020612daf85828601612bfd565b9150509250929050565b600060208284031215612dcb57600080fd5b6000612dd984828501612b7f565b91505092915050565b600060208284031215612df457600080fd5b6000612e0284828501612b94565b91505092915050565b600060208284031215612e1d57600080fd5b600082013567ffffffffffffffff811115612e3757600080fd5b612e4384828501612bd3565b91505092915050565b600060208284031215612e5e57600080fd5b6000612e6c84828501612bfd565b91505092915050565b60008060408385031215612e8857600080fd5b6000612e9685828601612bfd565b9250506020612ea785828601612bfd565b9150509250929050565b6000612ebd8383613282565b905092915050565b612ece816137f9565b82525050565b612edd816137f9565b82525050565b612eec816137e7565b82525050565b6000612efd82613714565b612f078185613742565b935083602082028501612f1985613704565b8060005b85811015612f555784840389528151612f368582612eb1565b9450612f4183613735565b925060208a01995050600181019050612f1d565b50829750879550505050505092915050565b612f708161380b565b82525050565b6000612f818261371f565b612f8b8185613753565b9350612f9b81856020860161387c565b612fa4816139e8565b840191505092915050565b6000612fba8261372a565b612fc48185613764565b9350612fd481856020860161387c565b612fdd816139e8565b840191505092915050565b6000612ff38261372a565b612ffd8185613775565b935061300d81856020860161387c565b613016816139e8565b840191505092915050565b600061302c8261372a565b6130368185613786565b935061304681856020860161387c565b80840191505092915050565b600061305f602d83613775565b915061306a826139f9565b604082019050919050565b6000613082603283613775565b915061308d82613a48565b604082019050919050565b60006130a5602683613775565b91506130b082613a97565b604082019050919050565b60006130c8602583613775565b91506130d382613ae6565b604082019050919050565b60006130eb601c83613775565b91506130f682613b35565b602082019050919050565b600061310e602483613775565b915061311982613b5e565b604082019050919050565b6000613131601983613775565b915061313c82613bad565b602082019050919050565b6000613154602983613775565b915061315f82613bd6565b604082019050919050565b6000613177602083613775565b915061318282613c25565b602082019050919050565b600061319a602083613775565b91506131a582613c4e565b602082019050919050565b60006131bd602c83613775565b91506131c882613c77565b604082019050919050565b60006131e0601883613775565b91506131eb82613cc6565b602082019050919050565b6000613203603983613775565b915061320e82613cef565b604082019050919050565b6000613226602183613775565b915061323182613d3e565b604082019050919050565b6000613249602583613775565b915061325482613d8d565b604082019050919050565b600061326c603d83613775565b915061327782613ddc565b604082019050919050565b600060808301600083015161329a60008601826132e5565b5060208301516132ad6020860182612ec5565b5060408301516132c060408601826132e5565b50606083015184820360608601526132d88282612faf565b9150508091505092915050565b6132ee81613863565b82525050565b6132fd81613863565b82525050565b600061330f8285613021565b915061331b8284613021565b91508190509392505050565b600060208201905061333c6000830184612ee3565b92915050565b60006080820190506133576000830187612ee3565b6133646020830186612ee3565b61337160408301856132f4565b81810360608301526133838184612f76565b905095945050505050565b60006040820190506133a36000830185612ee3565b6133b060208301846132f4565b9392505050565b600060208201905081810360008301526133d18184612ef2565b905092915050565b60006020820190506133ee6000830184612f67565b92915050565b6000602082019050818103600083015261340e8184612fe8565b905092915050565b6000602082019050818103600083015261342f81613052565b9050919050565b6000602082019050818103600083015261344f81613075565b9050919050565b6000602082019050818103600083015261346f81613098565b9050919050565b6000602082019050818103600083015261348f816130bb565b9050919050565b600060208201905081810360008301526134af816130de565b9050919050565b600060208201905081810360008301526134cf81613101565b9050919050565b600060208201905081810360008301526134ef81613124565b9050919050565b6000602082019050818103600083015261350f81613147565b9050919050565b6000602082019050818103600083015261352f8161316a565b9050919050565b6000602082019050818103600083015261354f8161318d565b9050919050565b6000602082019050818103600083015261356f816131b0565b9050919050565b6000602082019050818103600083015261358f816131d3565b9050919050565b600060208201905081810360008301526135af816131f6565b9050919050565b600060208201905081810360008301526135cf81613219565b9050919050565b600060208201905081810360008301526135ef8161323c565b9050919050565b6000602082019050818103600083015261360f8161325f565b9050919050565b600060208201905061362b60008301846132f4565b92915050565b600060808201905061364660008301876132f4565b6136536020830186612ed4565b61366060408301856132f4565b81810360608301526136728184612fe8565b905095945050505050565b6000613687613698565b905061369382826138e1565b919050565b6000604051905090565b600067ffffffffffffffff8211156136bd576136bc6139b9565b5b6136c6826139e8565b9050602081019050919050565b600067ffffffffffffffff8211156136ee576136ed6139b9565b5b6136f7826139e8565b9050602081019050919050565b6000819050602082019050919050565b600081519050919050565b600081519050919050565b600081519050919050565b6000602082019050919050565b600082825260208201905092915050565b600082825260208201905092915050565b600082825260208201905092915050565b600082825260208201905092915050565b600081905092915050565b600061379c82613863565b91506137a783613863565b9250827fffffffffffffffffffffffffffffffffffffffffffffffffffffffffffffffff038211156137dc576137db61395b565b5b828201905092915050565b60006137f282613843565b9050919050565b600061380482613843565b9050919050565b60008115159050919050565b60007fffffffff0000000000000000000000000000000000000000000000000000000082169050919050565b600073ffffffffffffffffffffffffffffffffffffffff82169050919050565b6000819050919050565b82818337600083830152505050565b60005b8381101561389a57808201518184015260208101905061387f565b838111156138a9576000848401525b50505050565b600060028204905060018216806138c757607f821691505b602082108114156138db576138da61398a565b5b50919050565b6138ea826139e8565b810181811067ffffffffffffffff82111715613909576139086139b9565b5b80604052505050565b600061391d82613863565b91507fffffffffffffffffffffffffffffffffffffffffffffffffffffffffffffffff8214156139505761394f61395b565b5b600182019050919050565b7f4e487b7100000000000000000000000000000000000000000000000000000000600052601160045260246000fd5b7f4e487b7100000000000000000000000000000000000000000000000000000000600052602260045260246000fd5b7f4e487b7100000000000000000000000000000000000000000000000000000000600052604160045260246000fd5b6000601f19601f8301169050919050565b7f4552433732313a2063616c6c6572206973206e6f7420746f6b656e206f776e6560008201527f72206f7220617070726f76656400000000000000000000000000000000000000602082015250565b7f4552433732313a207472616e7366657220746f206e6f6e20455243373231526560008201527f63656976657220696d706c656d656e7465720000000000000000000000000000602082015250565b7f4f776e61626c653a206e6577206f776e657220697320746865207a65726f206160008201527f6464726573730000000000000000000000000000000000000000000000000000602082015250565b7f4552433732313a207472616e736665722066726f6d20696e636f72726563742060008201527f6f776e6572000000000000000000000000000000000000000000000000000000602082015250565b7f4552433732313a20746f6b656e20616c7265616479206d696e74656400000000600082015250565b7f4552433732313a207472616e7366657220746f20746865207a65726f2061646460008201527f7265737300000000000000000000000000000000000000000000000000000000602082015250565b7f4552433732313a20617070726f766520746f2063616c6c657200000000000000600082015250565b7f4552433732313a2061646472657373207a65726f206973206e6f74206120766160008201527f6c6964206f776e65720000000000000000000000000000000000000000000000602082015250565b7f4552433732313a206d696e7420746f20746865207a65726f2061646472657373600082015250565b7f4f776e61626c653a2063616c6c6572206973206e6f7420746865206f776e6572600082015250565b7f43616e63656c206c6973746564204e4654204661696c65643a2049742069732060008201527f4e4f5420796f7572204e46540000000000000000000000000000000000000000602082015250565b7f4552433732313a20696e76616c696420746f6b656e2049440000000000000000600082015250565b7f4c697374204661696c65643a20696e76616c696420707269636520287072696360008201527f65206d7573742062652067726561746572207468616e20302900000000000000602082015250565b7f4552433732313a20617070726f76616c20746f2063757272656e74206f776e6560008201527f7200000000000000000000000000000000000000000000000000000000000000602082015250565b7f5061796d656e74204661696c65643a20696e636f72726574204554482071756160008201527f6e74697479000000000000000000000000000000000000000000000000000000602082015250565b7f4552433732313a20617070726f76652063616c6c6572206973206e6f7420746f60008201527f6b656e206f776e6572206f7220617070726f76656420666f7220616c6c000000602082015250565b613e34816137e7565b8114613e3f57600080fd5b50565b613e4b8161380b565b8114613e5657600080fd5b50565b613e6281613817565b8114613e6d57600080fd5b50565b613e7981613863565b8114613e8457600080fd5b5056fea26469706673582212202f58b864e76555156d766cbcf6d6b9f4454eef807da565260d276fa7ff21855a64736f6c63430008040033",
  "linkReferences": {},
  "deployedLinkReferences": {}
}