{
  "_format": "hh-sol-artifact-1",
  "contractName": "PaintingNFTContract",
  "sourceName": "src/contract/contracts/PaintingNFTContract.sol",
  "abi": [
    {
      "inputs": [
        {
          "internalType": "address",
          "name": "_operator",
          "type": "address"
        },
        {
          "internalType": "uint256",
          "name": "_tax",
          "type": "uint256"
        }
      ],
      "stateMutability": "nonpayable",
      "type": "constructor"
    },
    {
      "anonymous": false,
      "inputs": [
        {
          "indexed": true,
          "internalType": "address",
          "name": "owner",
          "type": "address"
        },
        {
          "indexed": true,
          "internalType": "address",
          "name": "approved",
          "type": "address"
        },
        {
          "indexed": true,
          "internalType": "uint256",
          "name": "tokenId",
          "type": "uint256"
        }
      ],
      "name": "Approval",
      "type": "event"
    },
    {
      "anonymous": false,
      "inputs": [
        {
          "indexed": true,
          "internalType": "address",
          "name": "owner",
          "type": "address"
        },
        {
          "indexed": true,
          "internalType": "address",
          "name": "operator",
          "type": "address"
        },
        {
          "indexed": false,
          "internalType": "bool",
          "name": "approved",
          "type": "bool"
        }
      ],
      "name": "ApprovalForAll",
      "type": "event"
    },
    {
      "anonymous": false,
      "inputs": [
        {
          "indexed": true,
          "internalType": "uint256",
          "name": "tokenID",
          "type": "uint256"
        },
        {
          "indexed": true,
          "internalType": "address",
          "name": "seller",
          "type": "address"
        },
        {
          "indexed": false,
          "internalType": "address",
          "name": "buyer",
          "type": "address"
        },
        {
          "indexed": false,
          "internalType": "uint256",
          "name": "price",
          "type": "uint256"
        }
      ],
      "name": "BoughtEvent",
      "type": "event"
    },
    {
      "anonymous": false,
      "inputs": [
        {
          "indexed": true,
          "internalType": "uint256",
          "name": "tokenId",
          "type": "uint256"
        }
      ],
      "name": "CancelListedEvent",
      "type": "event"
    },
    {
      "anonymous": false,
      "inputs": [
        {
          "indexed": true,
          "internalType": "uint256",
          "name": "tokenId",
          "type": "uint256"
        },
        {
          "indexed": true,
          "internalType": "address",
          "name": "seller",
          "type": "address"
        },
        {
          "indexed": false,
          "internalType": "uint256",
          "name": "price",
          "type": "uint256"
        }
      ],
      "name": "ListedEvent",
      "type": "event"
    },
    {
      "anonymous": false,
      "inputs": [
        {
          "indexed": true,
          "internalType": "address",
          "name": "previousOwner",
          "type": "address"
        },
        {
          "indexed": true,
          "internalType": "address",
          "name": "newOwner",
          "type": "address"
        }
      ],
      "name": "OwnershipTransferred",
      "type": "event"
    },
    {
      "anonymous": false,
      "inputs": [
        {
          "indexed": true,
          "internalType": "address",
          "name": "from",
          "type": "address"
        },
        {
          "indexed": true,
          "internalType": "address",
          "name": "to",
          "type": "address"
        },
        {
          "indexed": true,
          "internalType": "uint256",
          "name": "tokenId",
          "type": "uint256"
        }
      ],
      "name": "Transfer",
      "type": "event"
    },
    {
      "inputs": [
        {
          "internalType": "address",
          "name": "to",
          "type": "address"
        },
        {
          "internalType": "uint256",
          "name": "tokenId",
          "type": "uint256"
        }
      ],
      "name": "approve",
      "outputs": [],
      "stateMutability": "nonpayable",
      "type": "function"
    },
    {
      "inputs": [
        {
          "internalType": "address",
          "name": "owner",
          "type": "address"
        }
      ],
      "name": "balanceOf",
      "outputs": [
        {
          "internalType": "uint256",
          "name": "",
          "type": "uint256"
        }
      ],
      "stateMutability": "view",
      "type": "function"
    },
    {
      "inputs": [
        {
          "internalType": "uint256",
          "name": "_tokenId",
          "type": "uint256"
        }
      ],
      "name": "buyNFT",
      "outputs": [],
      "stateMutability": "payable",
      "type": "function"
    },
    {
      "inputs": [
        {
          "internalType": "uint256",
          "name": "_tokenId",
          "type": "uint256"
        }
      ],
      "name": "cancelListNFT",
      "outputs": [],
      "stateMutability": "payable",
      "type": "function"
    },
    {
      "inputs": [
        {
          "internalType": "string",
          "name": "_tokenURI",
          "type": "string"
        }
      ],
      "name": "createNFT",
      "outputs": [],
      "stateMutability": "nonpayable",
      "type": "function"
    },
    {
      "inputs": [
        {
          "internalType": "uint256",
          "name": "tokenId",
          "type": "uint256"
        }
      ],
      "name": "getApproved",
      "outputs": [
        {
          "internalType": "address",
          "name": "",
          "type": "address"
        }
      ],
      "stateMutability": "view",
      "type": "function"
    },
    {
      "inputs": [],
      "name": "getMyNFT",
      "outputs": [
        {
          "components": [
            {
              "internalType": "uint256",
              "name": "tokenId",
              "type": "uint256"
            },
            {
              "internalType": "address payable",
              "name": "owner",
              "type": "address"
            },
            {
              "internalType": "uint256",
              "name": "price",
              "type": "uint256"
            },
            {
              "internalType": "string",
              "name": "URI",
              "type": "string"
            }
          ],
          "internalType": "struct PaintingNFTContract.Painting[]",
          "name": "",
          "type": "tuple[]"
        }
      ],
      "stateMutability": "view",
      "type": "function"
    },
    {
      "inputs": [],
      "name": "getUnsoldNFT",
      "outputs": [
        {
          "components": [
            {
              "internalType": "uint256",
              "name": "tokenId",
              "type": "uint256"
            },
            {
              "internalType": "address payable",
              "name": "owner",
              "type": "address"
            },
            {
              "internalType": "uint256",
              "name": "price",
              "type": "uint256"
            },
            {
              "internalType": "string",
              "name": "URI",
              "type": "string"
            }
          ],
          "internalType": "struct PaintingNFTContract.Painting[]",
          "name": "",
          "type": "tuple[]"
        }
      ],
      "stateMutability": "view",
      "type": "function"
    },
    {
      "inputs": [
        {
          "internalType": "address",
          "name": "owner",
          "type": "address"
        },
        {
          "internalType": "address",
          "name": "operator",
          "type": "address"
        }
      ],
      "name": "isApprovedForAll",
      "outputs": [
        {
          "internalType": "bool",
          "name": "",
          "type": "bool"
        }
      ],
      "stateMutability": "view",
      "type": "function"
    },
    {
      "inputs": [
        {
          "internalType": "uint256",
          "name": "_tokenId",
          "type": "uint256"
        },
        {
          "internalType": "uint256",
          "name": "_price",
          "type": "uint256"
        }
      ],
      "name": "listNFT",
      "outputs": [],
      "stateMutability": "payable",
      "type": "function"
    },
    {
      "inputs": [],
      "name": "name",
      "outputs": [
        {
          "internalType": "string",
          "name": "",
          "type": "string"
        }
      ],
      "stateMutability": "view",
      "type": "function"
    },
    {
      "inputs": [],
      "name": "operator",
      "outputs": [
        {
          "internalType": "address",
          "name": "",
          "type": "address"
        }
      ],
      "stateMutability": "view",
      "type": "function"
    },
    {
      "inputs": [],
      "name": "owner",
      "outputs": [
        {
          "internalType": "address",
          "name": "",
          "type": "address"
        }
      ],
      "stateMutability": "view",
      "type": "function"
    },
    {
      "inputs": [
        {
          "internalType": "uint256",
          "name": "tokenId",
          "type": "uint256"
        }
      ],
      "name": "ownerOf",
      "outputs": [
        {
          "internalType": "address",
          "name": "",
          "type": "address"
        }
      ],
      "stateMutability": "view",
      "type": "function"
    },
    {
      "inputs": [
        {
          "internalType": "uint256",
          "name": "",
          "type": "uint256"
        }
      ],
      "name": "paintings",
      "outputs": [
        {
          "internalType": "uint256",
          "name": "tokenId",
          "type": "uint256"
        },
        {
          "internalType": "address payable",
          "name": "owner",
          "type": "address"
        },
        {
          "internalType": "uint256",
          "name": "price",
          "type": "uint256"
        },
        {
          "internalType": "string",
          "name": "URI",
          "type": "string"
        }
      ],
      "stateMutability": "view",
      "type": "function"
    },
    {
      "inputs": [],
      "name": "renounceOwnership",
      "outputs": [],
      "stateMutability": "nonpayable",
      "type": "function"
    },
    {
      "inputs": [
        {
          "internalType": "address",
          "name": "from",
          "type": "address"
        },
        {
          "internalType": "address",
          "name": "to",
          "type": "address"
        },
        {
          "internalType": "uint256",
          "name": "tokenId",
          "type": "uint256"
        }
      ],
      "name": "safeTransferFrom",
      "outputs": [],
      "stateMutability": "nonpayable",
      "type": "function"
    },
    {
      "inputs": [
        {
          "internalType": "address",
          "name": "from",
          "type": "address"
        },
        {
          "internalType": "address",
          "name": "to",
          "type": "address"
        },
        {
          "internalType": "uint256",
          "name": "tokenId",
          "type": "uint256"
        },
        {
          "internalType": "bytes",
          "name": "data",
          "type": "bytes"
        }
      ],
      "name": "safeTransferFrom",
      "outputs": [],
      "stateMutability": "nonpayable",
      "type": "function"
    },
    {
      "inputs": [
        {
          "internalType": "address",
          "name": "operator",
          "type": "address"
        },
        {
          "internalType": "bool",
          "name": "approved",
          "type": "bool"
        }
      ],
      "name": "setApprovalForAll",
      "outputs": [],
      "stateMutability": "nonpayable",
      "type": "function"
    },
    {
      "inputs": [
        {
          "internalType": "bytes4",
          "name": "interfaceId",
          "type": "bytes4"
        }
      ],
      "name": "supportsInterface",
      "outputs": [
        {
          "internalType": "bool",
          "name": "",
          "type": "bool"
        }
      ],
      "stateMutability": "view",
      "type": "function"
    },
    {
      "inputs": [],
      "name": "symbol",
      "outputs": [
        {
          "internalType": "string",
          "name": "",
          "type": "string"
        }
      ],
      "stateMutability": "view",
      "type": "function"
    },
    {
      "inputs": [],
      "name": "tax",
      "outputs": [
        {
          "internalType": "uint256",
          "name": "",
          "type": "uint256"
        }
      ],
      "stateMutability": "view",
      "type": "function"
    },
    {
      "inputs": [
        {
          "internalType": "uint256",
          "name": "tokenId",
          "type": "uint256"
        }
      ],
      "name": "tokenURI",
      "outputs": [
        {
          "internalType": "string",
          "name": "",
          "type": "string"
        }
      ],
      "stateMutability": "view",
      "type": "function"
    },
    {
      "inputs": [
        {
          "internalType": "address",
          "name": "from",
          "type": "address"
        },
        {
          "internalType": "address",
          "name": "to",
          "type": "address"
        },
        {
          "internalType": "uint256",
          "name": "tokenId",
          "type": "uint256"
        }
      ],
      "name": "transferFrom",
      "outputs": [],
      "stateMutability": "nonpayable",
      "type": "function"
    },
    {
      "inputs": [
        {
          "internalType": "address",
          "name": "newOwner",
          "type": "address"
        }
      ],
      "name": "transferOwnership",
      "outputs": [],
      "stateMutability": "nonpayable",
      "type": "function"
    }
  ],
  "bytecode": "0x60806040523480156200001157600080fd5b50604051620042fc380380620042fc8339818101604052810190620000379190620002f3565b6040518060400160405280600681526020017f44417070466900000000000000000000000000000000000000000000000000008152506040518060400160405280600481526020017f44415050000000000000000000000000000000000000000000000000000000008152508160009080519060200190620000bb92919062000215565b508060019080519060200190620000d492919062000215565b505050620000f7620000eb6200014760201b60201c565b6200014f60201b60201c565b81600760006101000a81548173ffffffffffffffffffffffffffffffffffffffff021916908373ffffffffffffffffffffffffffffffffffffffff1602179055508060098190555050506200040b565b600033905090565b6000600660009054906101000a900473ffffffffffffffffffffffffffffffffffffffff16905081600660006101000a81548173ffffffffffffffffffffffffffffffffffffffff021916908373ffffffffffffffffffffffffffffffffffffffff1602179055508173ffffffffffffffffffffffffffffffffffffffff168173ffffffffffffffffffffffffffffffffffffffff167f8be0079c531659141344cd1fd0a4f28419497f9722a3daafe3b4186f6b6457e060405160405180910390a35050565b828054620002239062000372565b90600052602060002090601f01602090048101928262000247576000855562000293565b82601f106200026257805160ff191683800117855562000293565b8280016001018555821562000293579182015b828111156200029257825182559160200191906001019062000275565b5b509050620002a29190620002a6565b5090565b5b80821115620002c1576000816000905550600101620002a7565b5090565b600081519050620002d681620003d7565b92915050565b600081519050620002ed81620003f1565b92915050565b600080604083850312156200030757600080fd5b60006200031785828601620002c5565b92505060206200032a85828601620002dc565b9150509250929050565b6000620003418262000348565b9050919050565b600073ffffffffffffffffffffffffffffffffffffffff82169050919050565b6000819050919050565b600060028204905060018216806200038b57607f821691505b60208210811415620003a257620003a1620003a8565b5b50919050565b7f4e487b7100000000000000000000000000000000000000000000000000000000600052602260045260246000fd5b620003e28162000334565b8114620003ee57600080fd5b50565b620003fc8162000368565b81146200040857600080fd5b50565b613ee1806200041b6000396000f3fe6080604052600436106101665760003560e01c806388cf3d1b116100d1578063b88d4fde1161008a578063cad7d03311610064578063cad7d03314610516578063da2ed03e14610541578063e985e9c51461056a578063f2fde38b146105a757610166565b8063b88d4fde14610470578063c7ca6daa14610499578063c87b56dd146104d957610166565b806388cf3d1b1461038e5780638da5cb5b146103aa57806394383f14146103d557806395d89b41146103f157806399c8d5561461041c578063a22cb4651461044757610166565b806342842e0e1161012357806342842e0e1461028d57806351ed8288146102b6578063570ca735146102d25780636352211e146102fd57806370a082311461033a578063715018a61461037757610166565b806301ffc9a71461016b57806306fdde03146101a8578063081812fc146101d3578063095ea7b31461021057806311b801691461023957806323b872dd14610264575b600080fd5b34801561017757600080fd5b50610192600480360381019061018d9190612ddd565b6105d0565b60405161019f91906133fd565b60405180910390f35b3480156101b457600080fd5b506101bd6106b2565b6040516101ca9190613418565b60405180910390f35b3480156101df57600080fd5b506101fa60048036038101906101f59190612e70565b610744565b604051610207919061334b565b60405180910390f35b34801561021c57600080fd5b5061023760048036038101906102329190612da1565b61078a565b005b34801561024557600080fd5b5061024e6108a2565b60405161025b91906133db565b60405180910390f35b34801561027057600080fd5b5061028b60048036038101906102869190612c9b565b610b3b565b005b34801561029957600080fd5b506102b460048036038101906102af9190612c9b565b610b9b565b005b6102d060048036038101906102cb9190612e70565b610bbb565b005b3480156102de57600080fd5b506102e7610e67565b6040516102f4919061334b565b60405180910390f35b34801561030957600080fd5b50610324600480360381019061031f9190612e70565b610e8d565b604051610331919061334b565b60405180910390f35b34801561034657600080fd5b50610361600480360381019061035c9190612c36565b610f14565b60405161036e919061363a565b60405180910390f35b34801561038357600080fd5b5061038c610fcc565b005b6103a860048036038101906103a39190612e70565b610fe0565b005b3480156103b657600080fd5b506103bf6110fa565b6040516103cc919061334b565b60405180910390f35b6103ef60048036038101906103ea9190612e99565b611124565b005b3480156103fd57600080fd5b50610406611215565b6040516104139190613418565b60405180910390f35b34801561042857600080fd5b506104316112a7565b60405161043e919061363a565b60405180910390f35b34801561045357600080fd5b5061046e60048036038101906104699190612d65565b6112ad565b005b34801561047c57600080fd5b5061049760048036038101906104929190612cea565b6112c3565b005b3480156104a557600080fd5b506104c060048036038101906104bb9190612e70565b611325565b6040516104d09493929190613655565b60405180910390f35b3480156104e557600080fd5b5061050060048036038101906104fb9190612e70565b61140d565b60405161050d9190613418565b60405180910390f35b34801561052257600080fd5b5061052b611475565b60405161053891906133db565b60405180910390f35b34801561054d57600080fd5b5061056860048036038101906105639190612e2f565b611829565b005b34801561057657600080fd5b50610591600480360381019061058c9190612c5f565b61191e565b60405161059e91906133fd565b60405180910390f35b3480156105b357600080fd5b506105ce60048036038101906105c99190612c36565b6119b2565b005b60007f80ac58cd000000000000000000000000000000000000000000000000000000007bffffffffffffffffffffffffffffffffffffffffffffffffffffffff1916827bffffffffffffffffffffffffffffffffffffffffffffffffffffffff1916148061069b57507f5b5e139f000000000000000000000000000000000000000000000000000000007bffffffffffffffffffffffffffffffffffffffffffffffffffffffff1916827bffffffffffffffffffffffffffffffffffffffffffffffffffffffff1916145b806106ab57506106aa82611a36565b5b9050919050565b6060600080546106c1906138d3565b80601f01602080910402602001604051908101604052809291908181526020018280546106ed906138d3565b801561073a5780601f1061070f5761010080835404028352916020019161073a565b820191906000526020600020905b81548152906001019060200180831161071d57829003601f168201915b5050505050905090565b600061074f82611aa0565b6004600083815260200190815260200160002060009054906101000a900473ffffffffffffffffffffffffffffffffffffffff169050919050565b600061079582610e8d565b90508073ffffffffffffffffffffffffffffffffffffffff168373ffffffffffffffffffffffffffffffffffffffff161415610806576040517f08c379a00000000000000000000000000000000000000000000000000000000081526004016107fd906135da565b60405180910390fd5b8073ffffffffffffffffffffffffffffffffffffffff16610825611aeb565b73ffffffffffffffffffffffffffffffffffffffff16148061085457506108538161084e611aeb565b61191e565b5b610893576040517f08c379a000000000000000000000000000000000000000000000000000000000815260040161088a9061361a565b60405180910390fd5b61089d8383611af3565b505050565b606060006108af30610f14565b905060008167ffffffffffffffff8111156108f3577f4e487b7100000000000000000000000000000000000000000000000000000000600052604160045260246000fd5b60405190808252806020026020018201604052801561092c57816020015b610919612a1c565b8152602001906001900390816109115790505b5090506000805b600880549050811015610b31573073ffffffffffffffffffffffffffffffffffffffff1661096082610e8d565b73ffffffffffffffffffffffffffffffffffffffff161415610b1e57600881815481106109b6577f4e487b7100000000000000000000000000000000000000000000000000000000600052603260045260246000fd5b9060005260206000209060040201604051806080016040529081600082015481526020016001820160009054906101000a900473ffffffffffffffffffffffffffffffffffffffff1673ffffffffffffffffffffffffffffffffffffffff1673ffffffffffffffffffffffffffffffffffffffff16815260200160028201548152602001600382018054610a49906138d3565b80601f0160208091040260200160405190810160405280929190818152602001828054610a75906138d3565b8015610ac25780601f10610a9757610100808354040283529160200191610ac2565b820191906000526020600020905b815481529060010190602001808311610aa557829003601f168201915b505050505081525050838381518110610b04577f4e487b7100000000000000000000000000000000000000000000000000000000600052603260045260246000fd5b60200260200101819052508180610b1a90613936565b9250505b8080610b2990613936565b915050610933565b5081935050505090565b610b4c610b46611aeb565b82611bac565b610b8b576040517f08c379a0000000000000000000000000000000000000000000000000000000008152600401610b829061343a565b60405180910390fd5b610b96838383611c41565b505050565b610bb6838383604051806020016040528060008152506112c3565b505050565b600060088281548110610bf7577f4e487b7100000000000000000000000000000000000000000000000000000000600052603260045260246000fd5b9060005260206000209060040201600201549050600060088381548110610c47577f4e487b7100000000000000000000000000000000000000000000000000000000600052603260045260246000fd5b906000526020600020906004020160010160009054906101000a900473ffffffffffffffffffffffffffffffffffffffff16905060095482610c8991906137b5565b3414610cca576040517f08c379a0000000000000000000000000000000000000000000000000000000008152600401610cc1906135fa565b60405180910390fd5b3360088481548110610d05577f4e487b7100000000000000000000000000000000000000000000000000000000600052603260045260246000fd5b906000526020600020906004020160010160006101000a81548173ffffffffffffffffffffffffffffffffffffffff021916908373ffffffffffffffffffffffffffffffffffffffff160217905550610d5f303385611c41565b600760009054906101000a900473ffffffffffffffffffffffffffffffffffffffff1673ffffffffffffffffffffffffffffffffffffffff166108fc6009549081150290604051600060405180830381858888f19350505050158015610dc9573d6000803e3d6000fd5b508073ffffffffffffffffffffffffffffffffffffffff166108fc839081150290604051600060405180830381858888f19350505050158015610e10573d6000803e3d6000fd5b508073ffffffffffffffffffffffffffffffffffffffff16837ff766699a1b2415e00e3f3a1418fc0f5a06ec5ad9b8a1f547267644fb469c1f463385604051610e5a9291906133b2565b60405180910390a3505050565b600760009054906101000a900473ffffffffffffffffffffffffffffffffffffffff1681565b600080610e9983611f3b565b9050600073ffffffffffffffffffffffffffffffffffffffff168173ffffffffffffffffffffffffffffffffffffffff161415610f0b576040517f08c379a0000000000000000000000000000000000000000000000000000000008152600401610f029061359a565b60405180910390fd5b80915050919050565b60008073ffffffffffffffffffffffffffffffffffffffff168273ffffffffffffffffffffffffffffffffffffffff161415610f85576040517f08c379a0000000000000000000000000000000000000000000000000000000008152600401610f7c9061351a565b60405180910390fd5b600360008373ffffffffffffffffffffffffffffffffffffffff1673ffffffffffffffffffffffffffffffffffffffff168152602001908152602001600020549050919050565b610fd4611f78565b610fde6000611ff6565b565b60006008828154811061101c577f4e487b7100000000000000000000000000000000000000000000000000000000600052603260045260246000fd5b906000526020600020906004020160010160009054906101000a900473ffffffffffffffffffffffffffffffffffffffff1690508073ffffffffffffffffffffffffffffffffffffffff163373ffffffffffffffffffffffffffffffffffffffff16146110be576040517f08c379a00000000000000000000000000000000000000000000000000000000081526004016110b59061357a565b60405180910390fd5b6110c9303384611c41565b817f2336af091758c5f38f79c2901e8a588a07537f6758448d1bda5743d25667156660405160405180910390a25050565b6000600660009054906101000a900473ffffffffffffffffffffffffffffffffffffffff16905090565b60008111611167576040517f08c379a000000000000000000000000000000000000000000000000000000000815260040161115e906135ba565b60405180910390fd5b80600883815481106111a2577f4e487b7100000000000000000000000000000000000000000000000000000000600052603260045260246000fd5b9060005260206000209060040201600201819055506111c2333084611c41565b3373ffffffffffffffffffffffffffffffffffffffff16827f2635d840f96df7aeb3da5ab70c88a0e9be39db8b50c653a5719606351ca8149c83604051611209919061363a565b60405180910390a35050565b606060018054611224906138d3565b80601f0160208091040260200160405190810160405280929190818152602001828054611250906138d3565b801561129d5780601f106112725761010080835404028352916020019161129d565b820191906000526020600020905b81548152906001019060200180831161128057829003601f168201915b5050505050905090565b60095481565b6112bf6112b8611aeb565b83836120bc565b5050565b6112d46112ce611aeb565b83611bac565b611313576040517f08c379a000000000000000000000000000000000000000000000000000000000815260040161130a9061343a565b60405180910390fd5b61131f84848484612229565b50505050565b6008818154811061133557600080fd5b90600052602060002090600402016000915090508060000154908060010160009054906101000a900473ffffffffffffffffffffffffffffffffffffffff169080600201549080600301805461138a906138d3565b80601f01602080910402602001604051908101604052809291908181526020018280546113b6906138d3565b80156114035780601f106113d857610100808354040283529160200191611403565b820191906000526020600020905b8154815290600101906020018083116113e657829003601f168201915b5050505050905084565b606061141882611aa0565b6000611422612285565b90506000815111611442576040518060200160405280600081525061146d565b8061144c8461229c565b60405160200161145d929190613327565b6040516020818303038152906040525b915050919050565b60606000805b600880549050811015611549573373ffffffffffffffffffffffffffffffffffffffff16600882815481106114d9577f4e487b7100000000000000000000000000000000000000000000000000000000600052603260045260246000fd5b906000526020600020906004020160010160009054906101000a900473ffffffffffffffffffffffffffffffffffffffff1673ffffffffffffffffffffffffffffffffffffffff16141561153657818061153290613936565b9250505b808061154190613936565b91505061147b565b506000808267ffffffffffffffff81111561158d577f4e487b7100000000000000000000000000000000000000000000000000000000600052604160045260246000fd5b6040519080825280602002602001820160405280156115c657816020015b6115b3612a1c565b8152602001906001900390816115ab5790505b50905060005b60088054905081101561181f573373ffffffffffffffffffffffffffffffffffffffff166008828154811061162a577f4e487b7100000000000000000000000000000000000000000000000000000000600052603260045260246000fd5b906000526020600020906004020160010160009054906101000a900473ffffffffffffffffffffffffffffffffffffffff1673ffffffffffffffffffffffffffffffffffffffff16141561180c57600881815481106116b2577f4e487b7100000000000000000000000000000000000000000000000000000000600052603260045260246000fd5b9060005260206000209060040201604051806080016040529081600082015481526020016001820160009054906101000a900473ffffffffffffffffffffffffffffffffffffffff1673ffffffffffffffffffffffffffffffffffffffff1673ffffffffffffffffffffffffffffffffffffffff16815260200160028201548152602001600382018054611745906138d3565b80601f0160208091040260200160405190810160405280929190818152602001828054611771906138d3565b80156117be5780601f10611793576101008083540402835291602001916117be565b820191906000526020600020905b8154815290600101906020018083116117a157829003601f168201915b505050505081525050828481518110611800577f4e487b7100000000000000000000000000000000000000000000000000000000600052603260045260246000fd5b60200260200101819052505b808061181790613936565b9150506115cc565b5080935050505090565b6000600880549050905061183d33826123c0565b600860405180608001604052808381526020013373ffffffffffffffffffffffffffffffffffffffff168152602001600081526020018481525090806001815401808255809150506001900390600052602060002090600402016000909190919091506000820151816000015560208201518160010160006101000a81548173ffffffffffffffffffffffffffffffffffffffff021916908373ffffffffffffffffffffffffffffffffffffffff160217905550604082015181600201556060820151816003019080519060200190611917929190612a5a565b5050505050565b6000600560008473ffffffffffffffffffffffffffffffffffffffff1673ffffffffffffffffffffffffffffffffffffffff16815260200190815260200160002060008373ffffffffffffffffffffffffffffffffffffffff1673ffffffffffffffffffffffffffffffffffffffff16815260200190815260200160002060009054906101000a900460ff16905092915050565b6119ba611f78565b600073ffffffffffffffffffffffffffffffffffffffff168173ffffffffffffffffffffffffffffffffffffffff161415611a2a576040517f08c379a0000000000000000000000000000000000000000000000000000000008152600401611a219061347a565b60405180910390fd5b611a3381611ff6565b50565b60007f01ffc9a7000000000000000000000000000000000000000000000000000000007bffffffffffffffffffffffffffffffffffffffffffffffffffffffff1916827bffffffffffffffffffffffffffffffffffffffffffffffffffffffff1916149050919050565b611aa9816125de565b611ae8576040517f08c379a0000000000000000000000000000000000000000000000000000000008152600401611adf9061359a565b60405180910390fd5b50565b600033905090565b816004600083815260200190815260200160002060006101000a81548173ffffffffffffffffffffffffffffffffffffffff021916908373ffffffffffffffffffffffffffffffffffffffff160217905550808273ffffffffffffffffffffffffffffffffffffffff16611b6683610e8d565b73ffffffffffffffffffffffffffffffffffffffff167f8c5be1e5ebec7d5bd14f71427d1e84f3dd0314c0f7b2291e5b200ac8c7c3b92560405160405180910390a45050565b600080611bb883610e8d565b90508073ffffffffffffffffffffffffffffffffffffffff168473ffffffffffffffffffffffffffffffffffffffff161480611bfa5750611bf9818561191e565b5b80611c3857508373ffffffffffffffffffffffffffffffffffffffff16611c2084610744565b73ffffffffffffffffffffffffffffffffffffffff16145b91505092915050565b8273ffffffffffffffffffffffffffffffffffffffff16611c6182610e8d565b73ffffffffffffffffffffffffffffffffffffffff1614611cb7576040517f08c379a0000000000000000000000000000000000000000000000000000000008152600401611cae9061349a565b60405180910390fd5b600073ffffffffffffffffffffffffffffffffffffffff168273ffffffffffffffffffffffffffffffffffffffff161415611d27576040517f08c379a0000000000000000000000000000000000000000000000000000000008152600401611d1e906134da565b60405180910390fd5b611d34838383600161261f565b8273ffffffffffffffffffffffffffffffffffffffff16611d5482610e8d565b73ffffffffffffffffffffffffffffffffffffffff1614611daa576040517f08c379a0000000000000000000000000000000000000000000000000000000008152600401611da19061349a565b60405180910390fd5b6004600082815260200190815260200160002060006101000a81549073ffffffffffffffffffffffffffffffffffffffff02191690556001600360008573ffffffffffffffffffffffffffffffffffffffff1673ffffffffffffffffffffffffffffffffffffffff168152602001908152602001600020600082825403925050819055506001600360008473ffffffffffffffffffffffffffffffffffffffff1673ffffffffffffffffffffffffffffffffffffffff16815260200190815260200160002060008282540192505081905550816002600083815260200190815260200160002060006101000a81548173ffffffffffffffffffffffffffffffffffffffff021916908373ffffffffffffffffffffffffffffffffffffffff160217905550808273ffffffffffffffffffffffffffffffffffffffff168473ffffffffffffffffffffffffffffffffffffffff167fddf252ad1be2c89b69c2b068fc378daa952ba7f163c4a11628f55a4df523b3ef60405160405180910390a4611f368383836001612625565b505050565b60006002600083815260200190815260200160002060009054906101000a900473ffffffffffffffffffffffffffffffffffffffff169050919050565b611f80611aeb565b73ffffffffffffffffffffffffffffffffffffffff16611f9e6110fa565b73ffffffffffffffffffffffffffffffffffffffff1614611ff4576040517f08c379a0000000000000000000000000000000000000000000000000000000008152600401611feb9061355a565b60405180910390fd5b565b6000600660009054906101000a900473ffffffffffffffffffffffffffffffffffffffff16905081600660006101000a81548173ffffffffffffffffffffffffffffffffffffffff021916908373ffffffffffffffffffffffffffffffffffffffff1602179055508173ffffffffffffffffffffffffffffffffffffffff168173ffffffffffffffffffffffffffffffffffffffff167f8be0079c531659141344cd1fd0a4f28419497f9722a3daafe3b4186f6b6457e060405160405180910390a35050565b8173ffffffffffffffffffffffffffffffffffffffff168373ffffffffffffffffffffffffffffffffffffffff16141561212b576040517f08c379a0000000000000000000000000000000000000000000000000000000008152600401612122906134fa565b60405180910390fd5b80600560008573ffffffffffffffffffffffffffffffffffffffff1673ffffffffffffffffffffffffffffffffffffffff16815260200190815260200160002060008473ffffffffffffffffffffffffffffffffffffffff1673ffffffffffffffffffffffffffffffffffffffff16815260200190815260200160002060006101000a81548160ff0219169083151502179055508173ffffffffffffffffffffffffffffffffffffffff168373ffffffffffffffffffffffffffffffffffffffff167f17307eab39ab6107e8899845ad3d59bd9653f200f220920489ca2b5937696c318360405161221c91906133fd565b60405180910390a3505050565b612234848484611c41565b6122408484848461262b565b61227f576040517f08c379a00000000000000000000000000000000000000000000000000000000081526004016122769061345a565b60405180910390fd5b50505050565b606060405180602001604052806000815250905090565b6060600060016122ab846127c2565b01905060008167ffffffffffffffff8111156122f0577f4e487b7100000000000000000000000000000000000000000000000000000000600052604160045260246000fd5b6040519080825280601f01601f1916602001820160405280156123225781602001600182028036833780820191505090505b509050600082602001820190505b6001156123b5578080600190039150507f3031323334353637383961626364656600000000000000000000000000000000600a86061a8153600a858161239f577f4e487b7100000000000000000000000000000000000000000000000000000000600052601260045260246000fd5b04945060008514156123b0576123b5565b612330565b819350505050919050565b600073ffffffffffffffffffffffffffffffffffffffff168273ffffffffffffffffffffffffffffffffffffffff161415612430576040517f08c379a00000000000000000000000000000000000000000000000000000000081526004016124279061353a565b60405180910390fd5b612439816125de565b15612479576040517f08c379a0000000000000000000000000000000000000000000000000000000008152600401612470906134ba565b60405180910390fd5b61248760008383600161261f565b612490816125de565b156124d0576040517f08c379a00000000000000000000000000000000000000000000000000000000081526004016124c7906134ba565b60405180910390fd5b6001600360008473ffffffffffffffffffffffffffffffffffffffff1673ffffffffffffffffffffffffffffffffffffffff16815260200190815260200160002060008282540192505081905550816002600083815260200190815260200160002060006101000a81548173ffffffffffffffffffffffffffffffffffffffff021916908373ffffffffffffffffffffffffffffffffffffffff160217905550808273ffffffffffffffffffffffffffffffffffffffff16600073ffffffffffffffffffffffffffffffffffffffff167fddf252ad1be2c89b69c2b068fc378daa952ba7f163c4a11628f55a4df523b3ef60405160405180910390a46125da600083836001612625565b5050565b60008073ffffffffffffffffffffffffffffffffffffffff1661260083611f3b565b73ffffffffffffffffffffffffffffffffffffffff1614159050919050565b50505050565b50505050565b600061264c8473ffffffffffffffffffffffffffffffffffffffff166129f9565b156127b5578373ffffffffffffffffffffffffffffffffffffffff1663150b7a02612675611aeb565b8786866040518563ffffffff1660e01b81526004016126979493929190613366565b602060405180830381600087803b1580156126b157600080fd5b505af19250505080156126e257506040513d601f19601f820116820180604052508101906126df9190612e06565b60015b612765573d8060008114612712576040519150601f19603f3d011682016040523d82523d6000602084013e612717565b606091505b5060008151141561275d576040517f08c379a00000000000000000000000000000000000000000000000000000000081526004016127549061345a565b60405180910390fd5b805181602001fd5b63150b7a0260e01b7bffffffffffffffffffffffffffffffffffffffffffffffffffffffff1916817bffffffffffffffffffffffffffffffffffffffffffffffffffffffff1916149150506127ba565b600190505b949350505050565b600080600090507a184f03e93ff9f4daa797ed6e38ed64bf6a1f0100000000000000008310612846577a184f03e93ff9f4daa797ed6e38ed64bf6a1f010000000000000000838161283c577f4e487b7100000000000000000000000000000000000000000000000000000000600052601260045260246000fd5b0492506040810190505b6d04ee2d6d415b85acef810000000083106128a9576d04ee2d6d415b85acef8100000000838161289f577f4e487b7100000000000000000000000000000000000000000000000000000000600052601260045260246000fd5b0492506020810190505b662386f26fc1000083106128fe57662386f26fc1000083816128f4577f4e487b7100000000000000000000000000000000000000000000000000000000600052601260045260246000fd5b0492506010810190505b6305f5e100831061294d576305f5e1008381612943577f4e487b7100000000000000000000000000000000000000000000000000000000600052601260045260246000fd5b0492506008810190505b612710831061299857612710838161298e577f4e487b7100000000000000000000000000000000000000000000000000000000600052601260045260246000fd5b0492506004810190505b606483106129e157606483816129d7577f4e487b7100000000000000000000000000000000000000000000000000000000600052601260045260246000fd5b0492506002810190505b600a83106129f0576001810190505b80915050919050565b6000808273ffffffffffffffffffffffffffffffffffffffff163b119050919050565b604051806080016040528060008152602001600073ffffffffffffffffffffffffffffffffffffffff16815260200160008152602001606081525090565b828054612a66906138d3565b90600052602060002090601f016020900481019282612a885760008555612acf565b82601f10612aa157805160ff1916838001178555612acf565b82800160010185558215612acf579182015b82811115612ace578251825591602001919060010190612ab3565b5b509050612adc9190612ae0565b5090565b5b80821115612af9576000816000905550600101612ae1565b5090565b6000612b10612b0b846136c6565b6136a1565b905082815260208101848484011115612b2857600080fd5b612b33848285613891565b509392505050565b6000612b4e612b49846136f7565b6136a1565b905082815260208101848484011115612b6657600080fd5b612b71848285613891565b509392505050565b600081359050612b8881613e4f565b92915050565b600081359050612b9d81613e66565b92915050565b600081359050612bb281613e7d565b92915050565b600081519050612bc781613e7d565b92915050565b600082601f830112612bde57600080fd5b8135612bee848260208601612afd565b91505092915050565b600082601f830112612c0857600080fd5b8135612c18848260208601612b3b565b91505092915050565b600081359050612c3081613e94565b92915050565b600060208284031215612c4857600080fd5b6000612c5684828501612b79565b91505092915050565b60008060408385031215612c7257600080fd5b6000612c8085828601612b79565b9250506020612c9185828601612b79565b9150509250929050565b600080600060608486031215612cb057600080fd5b6000612cbe86828701612b79565b9350506020612ccf86828701612b79565b9250506040612ce086828701612c21565b9150509250925092565b60008060008060808587031215612d0057600080fd5b6000612d0e87828801612b79565b9450506020612d1f87828801612b79565b9350506040612d3087828801612c21565b925050606085013567ffffffffffffffff811115612d4d57600080fd5b612d5987828801612bcd565b91505092959194509250565b60008060408385031215612d7857600080fd5b6000612d8685828601612b79565b9250506020612d9785828601612b8e565b9150509250929050565b60008060408385031215612db457600080fd5b6000612dc285828601612b79565b9250506020612dd385828601612c21565b9150509250929050565b600060208284031215612def57600080fd5b6000612dfd84828501612ba3565b91505092915050565b600060208284031215612e1857600080fd5b6000612e2684828501612bb8565b91505092915050565b600060208284031215612e4157600080fd5b600082013567ffffffffffffffff811115612e5b57600080fd5b612e6784828501612bf7565b91505092915050565b600060208284031215612e8257600080fd5b6000612e9084828501612c21565b91505092915050565b60008060408385031215612eac57600080fd5b6000612eba85828601612c21565b9250506020612ecb85828601612c21565b9150509250929050565b6000612ee183836132a6565b905092915050565b612ef28161381d565b82525050565b612f018161381d565b82525050565b612f108161380b565b82525050565b6000612f2182613738565b612f2b8185613766565b935083602082028501612f3d85613728565b8060005b85811015612f795784840389528151612f5a8582612ed5565b9450612f6583613759565b925060208a01995050600181019050612f41565b50829750879550505050505092915050565b612f948161382f565b82525050565b6000612fa582613743565b612faf8185613777565b9350612fbf8185602086016138a0565b612fc881613a0c565b840191505092915050565b6000612fde8261374e565b612fe88185613788565b9350612ff88185602086016138a0565b61300181613a0c565b840191505092915050565b60006130178261374e565b6130218185613799565b93506130318185602086016138a0565b61303a81613a0c565b840191505092915050565b60006130508261374e565b61305a81856137aa565b935061306a8185602086016138a0565b80840191505092915050565b6000613083602d83613799565b915061308e82613a1d565b604082019050919050565b60006130a6603283613799565b91506130b182613a6c565b604082019050919050565b60006130c9602683613799565b91506130d482613abb565b604082019050919050565b60006130ec602583613799565b91506130f782613b0a565b604082019050919050565b600061310f601c83613799565b915061311a82613b59565b602082019050919050565b6000613132602483613799565b915061313d82613b82565b604082019050919050565b6000613155601983613799565b915061316082613bd1565b602082019050919050565b6000613178602983613799565b915061318382613bfa565b604082019050919050565b600061319b602083613799565b91506131a682613c49565b602082019050919050565b60006131be602083613799565b91506131c982613c72565b602082019050919050565b60006131e1602c83613799565b91506131ec82613c9b565b604082019050919050565b6000613204601883613799565b915061320f82613cea565b602082019050919050565b6000613227603983613799565b915061323282613d13565b604082019050919050565b600061324a602183613799565b915061325582613d62565b604082019050919050565b600061326d602583613799565b915061327882613db1565b604082019050919050565b6000613290603d83613799565b915061329b82613e00565b604082019050919050565b60006080830160008301516132be6000860182613309565b5060208301516132d16020860182612ee9565b5060408301516132e46040860182613309565b50606083015184820360608601526132fc8282612fd3565b9150508091505092915050565b61331281613887565b82525050565b61332181613887565b82525050565b60006133338285613045565b915061333f8284613045565b91508190509392505050565b60006020820190506133606000830184612f07565b92915050565b600060808201905061337b6000830187612f07565b6133886020830186612f07565b6133956040830185613318565b81810360608301526133a78184612f9a565b905095945050505050565b60006040820190506133c76000830185612f07565b6133d46020830184613318565b9392505050565b600060208201905081810360008301526133f58184612f16565b905092915050565b60006020820190506134126000830184612f8b565b92915050565b60006020820190508181036000830152613432818461300c565b905092915050565b6000602082019050818103600083015261345381613076565b9050919050565b6000602082019050818103600083015261347381613099565b9050919050565b60006020820190508181036000830152613493816130bc565b9050919050565b600060208201905081810360008301526134b3816130df565b9050919050565b600060208201905081810360008301526134d381613102565b9050919050565b600060208201905081810360008301526134f381613125565b9050919050565b6000602082019050818103600083015261351381613148565b9050919050565b600060208201905081810360008301526135338161316b565b9050919050565b600060208201905081810360008301526135538161318e565b9050919050565b60006020820190508181036000830152613573816131b1565b9050919050565b60006020820190508181036000830152613593816131d4565b9050919050565b600060208201905081810360008301526135b3816131f7565b9050919050565b600060208201905081810360008301526135d38161321a565b9050919050565b600060208201905081810360008301526135f38161323d565b9050919050565b6000602082019050818103600083015261361381613260565b9050919050565b6000602082019050818103600083015261363381613283565b9050919050565b600060208201905061364f6000830184613318565b92915050565b600060808201905061366a6000830187613318565b6136776020830186612ef8565b6136846040830185613318565b8181036060830152613696818461300c565b905095945050505050565b60006136ab6136bc565b90506136b78282613905565b919050565b6000604051905090565b600067ffffffffffffffff8211156136e1576136e06139dd565b5b6136ea82613a0c565b9050602081019050919050565b600067ffffffffffffffff821115613712576137116139dd565b5b61371b82613a0c565b9050602081019050919050565b6000819050602082019050919050565b600081519050919050565b600081519050919050565b600081519050919050565b6000602082019050919050565b600082825260208201905092915050565b600082825260208201905092915050565b600082825260208201905092915050565b600082825260208201905092915050565b600081905092915050565b60006137c082613887565b91506137cb83613887565b9250827fffffffffffffffffffffffffffffffffffffffffffffffffffffffffffffffff03821115613800576137ff61397f565b5b828201905092915050565b600061381682613867565b9050919050565b600061382882613867565b9050919050565b60008115159050919050565b60007fffffffff0000000000000000000000000000000000000000000000000000000082169050919050565b600073ffffffffffffffffffffffffffffffffffffffff82169050919050565b6000819050919050565b82818337600083830152505050565b60005b838110156138be5780820151818401526020810190506138a3565b838111156138cd576000848401525b50505050565b600060028204905060018216806138eb57607f821691505b602082108114156138ff576138fe6139ae565b5b50919050565b61390e82613a0c565b810181811067ffffffffffffffff8211171561392d5761392c6139dd565b5b80604052505050565b600061394182613887565b91507fffffffffffffffffffffffffffffffffffffffffffffffffffffffffffffffff8214156139745761397361397f565b5b600182019050919050565b7f4e487b7100000000000000000000000000000000000000000000000000000000600052601160045260246000fd5b7f4e487b7100000000000000000000000000000000000000000000000000000000600052602260045260246000fd5b7f4e487b7100000000000000000000000000000000000000000000000000000000600052604160045260246000fd5b6000601f19601f8301169050919050565b7f4552433732313a2063616c6c6572206973206e6f7420746f6b656e206f776e6560008201527f72206f7220617070726f76656400000000000000000000000000000000000000602082015250565b7f4552433732313a207472616e7366657220746f206e6f6e20455243373231526560008201527f63656976657220696d706c656d656e7465720000000000000000000000000000602082015250565b7f4f776e61626c653a206e6577206f776e657220697320746865207a65726f206160008201527f6464726573730000000000000000000000000000000000000000000000000000602082015250565b7f4552433732313a207472616e736665722066726f6d20696e636f72726563742060008201527f6f776e6572000000000000000000000000000000000000000000000000000000602082015250565b7f4552433732313a20746f6b656e20616c7265616479206d696e74656400000000600082015250565b7f4552433732313a207472616e7366657220746f20746865207a65726f2061646460008201527f7265737300000000000000000000000000000000000000000000000000000000602082015250565b7f4552433732313a20617070726f766520746f2063616c6c657200000000000000600082015250565b7f4552433732313a2061646472657373207a65726f206973206e6f74206120766160008201527f6c6964206f776e65720000000000000000000000000000000000000000000000602082015250565b7f4552433732313a206d696e7420746f20746865207a65726f2061646472657373600082015250565b7f4f776e61626c653a2063616c6c6572206973206e6f7420746865206f776e6572600082015250565b7f43616e63656c206c6973746564204e4654204661696c65643a2049742069732060008201527f4e4f5420796f7572204e46540000000000000000000000000000000000000000602082015250565b7f4552433732313a20696e76616c696420746f6b656e2049440000000000000000600082015250565b7f4c697374204661696c65643a20696e76616c696420707269636520287072696360008201527f65206d7573742062652067726561746572207468616e20302900000000000000602082015250565b7f4552433732313a20617070726f76616c20746f2063757272656e74206f776e6560008201527f7200000000000000000000000000000000000000000000000000000000000000602082015250565b7f5061796d656e74204661696c65643a20696e636f72726574204554482071756160008201527f6e74697479000000000000000000000000000000000000000000000000000000602082015250565b7f4552433732313a20617070726f76652063616c6c6572206973206e6f7420746f60008201527f6b656e206f776e6572206f7220617070726f76656420666f7220616c6c000000602082015250565b613e588161380b565b8114613e6357600080fd5b50565b613e6f8161382f565b8114613e7a57600080fd5b50565b613e868161383b565b8114613e9157600080fd5b50565b613e9d81613887565b8114613ea857600080fd5b5056fea2646970667358221220f29f1ed9647c888a5b3d90dee8e7cd0eea34af6afdf735ed294295286abcb4c264736f6c63430008040033",
  "linkReferences": {},
  "deployedLinkReferences": {}
}